:100000000C945D000C9485000C9485000C94850084
:100010000C9485000C9485000C9485000C9485004C
:100020000C9485000C9485000C9485000C9485003C
:100030000C9485000C9485000C9485000C9485002C
:100040000C94B8020C9485000C9485000C948500E7
:100050000C9485000C9485000C9485000C9485000C
:100060000C9400030C94850000000000240027007D
:100070002A0000000000250028002B0004040404CE
:100080000404040402020202020203030303030342
:10009000010204081020408001020408102001021F
:1000A00004081020000000080002010000030407FB
:1000B0000000000000000000550411241FBECFEF17
:1000C000D8E0DEBFCDBF11E0A0E0B1E0ECEDF8E09C
:1000D00002C005900D92A231B107D9F721E0A2E14B
:1000E000B1E001C01D92AD3BB207E1F710E0CDE5F4
:1000F000D0E004C02197FE010E946604CC35D107F0
:10010000C9F70E941F040C946C040C9400008EE844
:1001100090E09093BC018093BB010895CF93DF934F
:10012000AC01E091A001F091A1013097F1F0909124
:100130009F0180919E019817C0F090E0292F30E038
:100140002617370754F4D901AE5EBE4F240F351F72
:10015000E90128812C939F5FF1CF10929F0160935A
:100160009E01CB01DF91CF910994DF91CF9108954A
:100170008FEB90E09093BA018093B9010895E091DC
:10018000A201F091A301309729F010929D011092E5
:100190009C010994089580E480937C0080917A000A
:1001A000806480937A0080917A0086FDFCCF8091F4
:1001B000780090917900089590E0FC01EC55FF4F94
:1001C0002491FC01E057FF4F3491FC01E458FF4FAC
:1001D000E491EE23C9F0222339F0233001F1A8F491
:1001E000213019F1223029F1F0E0EE0FFF1FEE5817
:1001F000FF4FA591B4918FB7F894EC91611126C08F
:1002000030953E233C938FBF08952730A9F02830C6
:10021000C9F0243049F7809180008F7D03C0809120
:1002200080008F7780938000DFCF84B58F7784BD87
:10023000DBCF84B58F7DFBCF8091B0008F7780932B
:10024000B000D2CF8091B0008F7DF9CF3E2BDACFB6
:10025000CF93DF9390E0FC01E057FF4F2491845847
:100260009F4FFC0184918823D1F090E0880F991F63
:10027000FC01E859FF4FA591B491FC01EE58FF4FE6
:10028000C591D49161110EC09FB7F8948C91E22F63
:10029000E0958E238C932881E223E8839FBFDF9132
:1002A000CF9108958FB7F894EC91E22BEC938FBF28
:1002B000F6CF1F93CF93DF93182FEB0161E00E94DD
:1002C0002801209739F460E0812FDF91CF911F91B1
:1002D0000C94DC00E12FF0E0EC55FF4FE491E330AB
:1002E00011F148F4E130B9F0E23069F784B5806289
:1002F00084BDC8BD14C0E73001F1E83031F1E4300D
:1003000011F780918000806280938000D0938B00F1
:10031000C0938A0004C084B5806884BDC7BDDF91E6
:10032000CF911F9108958091800080688093800014
:10033000D0938900C0938800F2CF8091B00080688C
:100340008093B000C093B300EACF8091B000806288
:100350008093B000C093B400E2CF789484B58260FB
:1003600084BD84B5816084BD85B5826085BD85B559
:10037000816085BDEEE6F0E0808181608083E1E808
:10038000F0E0108280818260808380818160808340
:10039000E0E8F0E0808181608083E1EBF0E0808143
:1003A00084608083E0EBF0E0808181608083EAE715
:1003B000F0E080818460808380818260808380819E
:1003C000816080838081806880831092C10008955D
:1003D00085ED8093BC008091BC0084FDFCCF109221
:1003E0007601089520915201260F3327331F2132C1
:1003F0003105ECF420917601FC0190E080E024309E
:1004000069F082E00895A09152012191AC014E5C07
:100410005E4FA40FB52FB11D2C930196861798F34C
:1004200080915201680F6093520180E0089581E04D
:100430000895880F8093BA0008951092760181E0A4
:10044000809378011092770161E082E10E94DC00E4
:1004500061E083E10E94DC00E9EBF0E080818E7FC7
:10046000808380818D7F808388E48093B80085E4D9
:100470008093BC0008950895E0919F0180919E01B2
:10048000E81730F4F0E0EE5EFE4F808190E00895D2
:100490008FEF9FEF089590919F0180919E012FEF24
:1004A0003FEF981748F4E92FF0E0EE5EFE4F208111
:1004B00030E09F5F90939F01C901089580919E0154
:1004C00090919F01891B990B0895CF93DF93CB01E6
:1004D000EA01642F0E94F201CE01DF91CF910895CD
:1004E000CF93DF930F92CDB7DEB7698361E0CE0182
:1004F00001960E94F20181E090E00F90DF91CF9190
:1005000008950E94CB0097FD039695958795959544
:100510008795682F84EA91E00C94700290E080E067
:10052000089584EA91E00E944B02813051F484EAFC
:1005300091E00E944B02682F880F770B85E00C94A6
:100540005901823049F484EA91E00E944B02682FFD
:10055000880F770B89E0F3CF833049F484EA91E088
:100560000E944B02682F880F770B86E0E8CF089532
:100570001F921FB61F9211242F933F938F939F9327
:10058000AF93BF938091B5019091B601A091B7014F
:10059000B091B8013091B40123E0230F2D3750F50D
:1005A0000196A11DB11D2093B4018093B5019093D4
:1005B000B601A093B701B093B8018091B0019091BA
:1005C000B101A091B201B091B3010196A11DB11D7D
:1005D0008093B0019093B101A093B201B093B301A5
:1005E000BF91AF919F918F913F912F911F901FBE0F
:1005F0001F90189526E8230F0296A11DB11DD3CF99
:100600001F920F920FB60F9211242F933F934F9387
:100610005F936F937F938F939F93AF93BF93EF936A
:10062000FF938091B900887F803609F44AC0F0F5C5
:10063000883209F4A7C018F5803109F49BC0B8F4DA
:10064000882309F4F9C0883009F494C0FF91EF9130
:10065000BF91AF919F918F917F916F915F914F91DA
:100660003F912F910F900FBE0F901F9018958831DA
:1006700009F488C0803251F78093750114C080342A
:1006800009F49DC040F48033B9F38833F9F68093C0
:10069000750185ECB0C0803509F485C0883509F452
:1006A00096C0883499F60E94E801D0CF883909F4C1
:1006B0008CC038F5883729F050F4883611F080372F
:1006C00029F683E0809376011092740157C0883830
:1006D00009F47BC0803919F0803809F0B7CF8091D8
:1006E0007401803208F071C0E091740181E08E0FD6
:1006F000809374018091BB00F0E0EC5AFE4F808340
:100700003DC0803B39F0E0F4803A09F479C0883A82
:1007100009F09CCF84E080937601109253011092EF
:100720005201E091B901F091BA010995809152010D
:1007300081110FC081E0809352011092320109C0F3
:10074000803C09F4A6CF883C09F4A3CF883B09F08C
:100750007DCFE091530181E08E0F80935301F0E053
:10076000EE5CFE4F80818093BB009091530180919D
:10077000520129C080919B018093BB0085EC80933E
:10078000BC0064CF90919A0180919901981758F517
:10079000E0919A0181E08E0F80939A01F0E0E75892
:1007A000FE4F8081E9CFE0919A0181E08E0F809326
:1007B0009A018091BB00F0E0E758FE4F8083909152
:1007C0009A01809199019817C8F285E8D8CFE091F5
:1007D0009A0181E08E0F80939A018091BB00F0E036
:1007E000E758FE4F80838091780181115CCF81E0D2
:1007F0008093770184EA8093BC001092760126CF23
:1008000085EC8093BC001092760180917401803257
:1008100030F4E0917401F0E0EC5AFE4F10826091E8
:10082000740170E0E091BB01F091BC0184E591E0BE
:100830000995109274010ACF1092750134CF0E946D
:10084000AD0110929F0110929E0110929D01109295
:100850009C010E941D020E94B8000E9487008FE048
:100860000E94190261E085E00E94280161E089E0B0
:100870000E94280161E086E00E94280160E08EE08D
:100880000E94280181E992E09093A1018093A00148
:1008900081E892E09093A3018093A201C0E0D0E0B0
:1008A0002097F1F30E940000FBCFE4EAF1E013820D
:1008B000128288EE93E0A0E0B0E084839583A68363
:1008C000B78384E091E0918380830895EE0FFF1F4A
:0C08D0000590F491E02D0994F894FFCFFE
:1008DC0000000000700265028E023B025E024B02B9
:0208EC003C02CC
:107E0000112484B714BE81FFF0D085E080938100F7
:107E100082E08093C00088E18093C10086E0809377
:107E2000C20080E18093C4008EE0C9D0259A86E02C
:107E300020E33CEF91E0309385002093840096BBD3
:107E4000B09BFECF1D9AA8958150A9F7CC24DD24C4
:107E500088248394B5E0AB2EA1E19A2EF3E0BF2EE7
:107E6000A2D0813461F49FD0082FAFD0023811F036
:107E7000013811F484E001C083E08DD089C08234E0
:107E800011F484E103C0853419F485E0A6D080C0E4
:107E9000853579F488D0E82EFF2485D0082F10E0AE
:107EA000102F00270E291F29000F111F8ED06801E7
:107EB0006FC0863521F484E090D080E0DECF843638
:107EC00009F040C070D06FD0082F6DD080E0C81688
:107ED00080E7D80618F4F601B7BEE895C0E0D1E017
:107EE00062D089930C17E1F7F0E0CF16F0E7DF06D8
:107EF00018F0F601B7BEE89568D007B600FCFDCFD4
:107F0000A601A0E0B1E02C9130E011968C91119780
:107F100090E0982F8827822B932B1296FA010C0160
:107F200087BEE89511244E5F5F4FF1E0A038BF0790
:107F300051F7F601A7BEE89507B600FCFDCF97BE46
:107F4000E89526C08437B1F42ED02DD0F82E2BD052
:107F50003CD0F601EF2C8F010F5F1F4F84911BD097
:107F6000EA94F801C1F70894C11CD11CFA94CF0C13
:107F7000D11C0EC0853739F428D08EE10CD085E9AC
:107F80000AD08FE07ACF813511F488E018D01DD067
:107F900080E101D065CF982F8091C00085FFFCCF94
:107FA0009093C60008958091C00087FFFCCF809118
:107FB000C00084FD01C0A8958091C6000895E0E648
:107FC000F0E098E1908380830895EDDF803219F02E
:107FD00088E0F5DFFFCF84E1DECF1F93182FE3DFCA
:107FE0001150E9F7F2DF1F91089580E0E8DFEE27F6
:047FF000FF270994CA
:027FFE00040479
:0400000300007E007B
:00000001FF
