:100000000C947E000C94A6000C94A6000C94A60000
:100010000C94A6000C94A6000C94A6000C94A600C8
:100020000C94A6000C94A6000C94A6000C94A600B8
:100030000C94A6000C94A6000C94A6000C94A600A8
:100040000C94BA030C94A6000C942A040C94040497
:100050000C94A6000C94A6000C94A6000C94A60088
:100060000C945C040C94A6009B039D039F03A103C6
:10007000A403A603AA03AD03B003E406EA06FA0646
:10008000FA06F606E106FA06FA06FA06FA06FA068D
:10009000FA06FA06F306ED06FA06DE06FA06FA0690
:1000A000FA06FA06F006FA06E70600000008000263
:1000B0000100000304070000000000000000000031
:1000C0000000250028002B0000000000240027006D
:1000D0002A000404040404040404020202020202CA
:1000E00003030303030301020408102040800102FC
:1000F000040810200102040810208A0511241FBEE4
:10010000CFEFD8E0DEBFCDBF11E0A0E0B1E0E4E189
:10011000FEE002C005900D92AC32B107D9F722E0A3
:10012000ACE2B1E001C01D92A637B207E1F710E0E2
:10013000CEE7D0E004C02197FE010E94FD06CD3736
:10014000D107C9F70E9426060C9408070C940000FA
:10015000E0914E01F0914F01309729F01092610229
:100160001092600209940895CF93DF93AC01E0915F
:100170004C01F0914D013097F1F090916302809124
:1001800062029817C0F090E0292F30E02617370759
:1001900054F4D901A45DBE4FEA01C20FD31F888178
:1001A0008C939F5FF1CF1092630260936202CB0148
:1001B000DF91CF910994DF91CF91089590E0FC01F8
:1001C000EA51FF4F2491FC01EE52FF4F84918823A6
:1001D00099F090E0880F991FFC01E853FF4FA5911B
:1001E000B491FC01E254FF4F859194918FB7F8943C
:1001F000EC91E22BEC938FBF089590E0FC01E65563
:10020000FF4F3491FC01EA51FF4F2491FC01EE5263
:10021000FF4FE491EE2309F43BC0332339F133302F
:1002200091F038F43130A9F0323001F584B58F7D8A
:1002300012C0373091F03830A1F03430B9F48091E9
:1002400080008F7D03C0809180008F778093800035
:100250000DC084B58F7784BD09C08091B0008F77C1
:1002600003C08091B0008F7D8093B000F0E0EE0F6E
:10027000FF1FE254FF4FA591B4918FB7F894EC9112
:10028000611103C020952E2301C02E2B2C938FBF0C
:1002900008951F93CF93DF93182FEB010E94DE0088
:1002A000209711F460E004C0CF3FD10539F461E03C
:1002B000812FDF91CF911F910C94FD00E12FF0E091
:1002C000E655FF4FE491E330F9F048F4E130B9F03E
:1002D000E230A1F584B5806284BDC8BD34C0E7308A
:1002E000E9F0E83019F1E43049F58091800080624E
:1002F00080938000D0938B00C0938A0024C084B583
:10030000806884BDC7BD1FC08091800080688093D5
:100310008000D0938900C093880015C08091B00000
:1003200080688093B000C093B3000DC08091B0008E
:1003300080628093B000C093B40005C0C038D1057E
:100340000CF0B5CFAFCFDF91CF911F9108953FB79C
:10035000F8948091BF019091C001A091C101B0912A
:10036000C20126B5A89B05C02F3F19F00196A11D1B
:10037000B11D3FBFBA2FA92F982F8827820F911D3B
:10038000A11DB11DBC01CD0142E0660F771F881F82
:10039000991F4A95D1F70895CF92DF92EF92FF927D
:1003A0000F931F93CF93DF936C017A018B01C0E011
:1003B000D0E0CE15DF0589F0D8016D918D01D60111
:1003C000ED91FC910190F081E02DC6010995892BFA
:1003D00011F47E0102C02196ECCFC701DF91CF91CD
:1003E0001F910F91FF90EF90DF90CF900895FC0147
:1003F000538D448D252F30E0842F90E0821B930B8A
:10040000541710F0CF96089501970895FC01918D2F
:10041000828D981761F0828DDF01A80FB11D5D9666
:100420008C91928D9F5F9F73928F90E008958FEFD4
:100430009FEF0895FC01918D828D981731F0828D88
:10044000E80FF11D858D90E008958FEF9FEF0895DF
:10045000FC01918D228D892F90E0805C9F4F821B43
:1004600091098F739927089583EC91E00E942802E7
:1004700021E0892B09F420E0822F0895FC01848D6E
:10048000DF01A80FB11DA35ABF4F2C91848D90E0BE
:1004900001968F739927848FA689B7892C93A08999
:1004A000B1898C9180648C93938D848D981306C050
:1004B0000288F389E02D80818F7D80830895EF92FB
:1004C000FF920F931F93CF93DF93EC0181E0888F0E
:1004D0009B8D8C8D981305C0E889F989808185FDF5
:1004E00024C0F62E0B8D10E00F5F1F4F0F731127E6
:1004F000E02E8C8DE8120CC00FB607FCFACFE8890D
:10050000F989808185FFF5CFCE010E943E02F1CFAF
:100510008B8DFE01E80FF11DE35AFF4FF0820B8F28
:10052000EA89FB898081806207C0EE89FF89608348
:10053000E889F98980818064808381E090E0DF919F
:10054000CF911F910F91FF90EF900895CF93DF937C
:10055000EC01888D8823C9F0EA89FB89808185FDBB
:1005600005C0A889B9898C9186FD0FC00FB607FC1C
:10057000F5CF808185FFF2CFA889B9898C9185FF5D
:10058000EDCFCE010E943E02E7CFDF91CF910895DB
:1005900080E090E0892B29F00E94340281110C94B4
:1005A0000000089585ED8093BC008091BC0084FD1F
:1005B000FCCF10929401089540917001262F30E0F5
:1005C000240F311D21323105DCF4209194012430B7
:1005D000C9F4FC0180E090E0861758F43091700176
:1005E0002191DC01A05BBE4FA30FB11D2C9301969E
:1005F000F3CF80917001680F6093700180E00895DF
:1006000081E0089582E008951092940181E0809342
:1006100096011092950161E082E10E94FD0061E087
:1006200083E10E94FD00E9EBF0E080818E7F808312
:1006300080818D7F808388E48093B80085E48093F7
:10064000BC0008950895E091630280916202E8176A
:1006500030F4F0E0E45DFE4F808190E008958FEF8C
:100660009FEF08959091630280916202981750F471
:10067000E92FF0E0E45DFE4F208130E09F5F909332
:10068000630202C02FEF3FEFC9010895809162021B
:1006900090E020916302821B91090895CF93DF932C
:1006A00000D0CDB7DEB7CB01642F49835A830E94B7
:1006B000DC024981842F5A81952F0F900F90DF9192
:1006C000CF910895CF93DF931F92CDB7DEB76983A3
:1006D00061E0CE0101960E94DC0281E090E00F9083
:1006E000DF91CF910895089580E090E00895CF9331
:1006F000DF9300D0CDB7DEB770E085E02A83498371
:100700000E9449014981642F70E089E00E944901FB
:100710002A81622F70E086E00F900F90DF91CF91D9
:100720000C94490101978930910508F58C5C9F4F25
:10073000FC010C94FD0620E005C020E00CC020E088
:1007400006C02FEF40E004C020E008C02FEF4FEFBD
:1007500060E009C02FEF40E005C02FEF4FEF02C06F
:1007600020E04FE06FEF84E792E00C947703089568
:100770000E9403071F920F920FB60F9211242F931E
:100780003F938F939F93AF93BF938091BB019091C1
:10079000BC01A091BD01B091BE013091BA0123E02E
:1007A000230F2D3720F40196A11DB11D05C026E8A9
:1007B000230F0296A11DB11D2093BA018093BB01A6
:1007C0009093BC01A093BD01B093BE018091BF0185
:1007D0009091C001A091C101B091C2010196A11DEB
:1007E000B11D8093BF019093C001A093C101B0934C
:1007F000C201BF91AF919F918F913F912F910F9027
:100800000FBE0F901F9018951F920F920FB60F9268
:1008100011242F933F934F935F936F937F938F9305
:100820009F93AF93BF93EF93FF9383EC91E00E946C
:100830003E02FF91EF91BF91AF919F918F917F9178
:100840006F915F914F913F912F910F900FBE0F903D
:100850001F9018951F920F920FB60F9211242F938D
:100860008F939F93EF93FF93E091D301F091D40185
:100870008081E091D901F091DA0182FD12C090816E
:100880008091DC018F5F8F732091DD01821751F021
:10089000E091DC01F0E0ED53FE4F958F8093DC0199
:1008A00001C08081FF91EF919F918F912F910F90C7
:1008B0000FBE0F901F9018951F920F920FB60F92B8
:1008C00011242F933F934F935F936F937F938F9355
:1008D0009F93AF93BF93EF93FF938091B900887F6D
:1008E000803609F49CC068F5883209F45BC090F446
:1008F000803109F454C038F4882309F4F6C08830F4
:1009000009F44DC0F6C0883109F44CC0803209F4B6
:100910005DC0EFC0803409F468C048F4803309F446
:1009200055C0883309F0E5C080939301D8C0803565
:1009300009F44FC0883509F45DC0883409F0D9C086
:10094000D6C0883909F4C7C0A8F4883709F467C04D
:1009500038F4883609F463C0803709F460C0C9C030
:10096000883809F4B8C0803909F45FC0803809F0CC
:10097000C0C05BC0803B09F486C038F4803A09F4FB
:1009800066C0883A09F47FC0B4C0803C09F4A7C0AF
:10099000883C09F4A4C0883B09F48AC0AAC08091AD
:1009A000B90110C09091B8018091B701981770F506
:1009B000E091B80181E08E0F8093B801F0E0E95634
:1009C000FE4F80818093BB0085EC86C080939301AD
:1009D0008EC0E091B80181E08E0F8093B8018091C4
:1009E000BB00F0E0E956FE4F80839091B801809102
:1009F000B7016EC0E091B80181E08E0F8093B8011D
:100A00008091BB00F0E0E956FE4F80838091960113
:100A100081116DC081E08093950184EA61C083E01B
:100A20008093940110929201CFCF809192018032F5
:100A300008F051C0E091920181E08E0F8093920105
:100A40008091BB00F0E0EE58FE4F8083BDCF85EC77
:100A50008093BC001092940180919201803230F416
:100A6000E0919201F0E0EE58FE4F10826091920109
:100A700070E0E0916402F091650282E791E00995EF
:100A80001092920136C084E080939401109271011B
:100A900010927001E0916602F091670209958091D1
:100AA0007001811105C081E08093700110925001A6
:100AB000E091710181E08E0F80937101F0E0E05BC5
:100AC000FE4F80818093BB009091710180917001F5
:100AD000981708F479CF85E88093BC000AC085ECAC
:100AE0008093BC001092940104C0109293010E9464
:100AF000D202FF91EF91BF91AF919F918F917F9122
:100B00006F915F914F913F912F910F900FBE0F907A
:100B10001F9018951092C6011092C50188EE93E0BF
:100B2000A0E0B0E08093C7019093C801A093C901F1
:100B3000B093CA0124E031E03093C4012093C30193
:100B400025EC30E03093D0012093CF0124EC30E04D
:100B50003093D2012093D10120EC30E03093D401C6
:100B60002093D30121EC30E03093D6012093D501BE
:100B700022EC30E03093D8012093D70126EC30E00E
:100B80003093DA012093D9011092DC011092DD013B
:100B90001092DE011092DF0110926B0210926A0235
:100BA00080936C0290936D02A0936E02B0936F02DB
:100BB00086E191E0909369028093680285E00E944B
:100BC000DE0089E00E94DE0086E00E94DE0088E010
:100BD0000E94DE0020E04FEF60E084E792E00E9498
:100BE000770360E088E00E94FD001092740280911B
:100BF0007502882391F010926302109262021092A3
:100C00006102109260020E94040346E050E064E238
:100C100071E083EC91E00C94CC018EE18093BA00FA
:100C200088EA90E0909367028093660284EB90E0FC
:100C300090936502809364021092630210926202A4
:100C400010926102109260020C940403789484B5AF
:100C5000826084BD84B5816084BD85B5826085BDB8
:100C600085B5816085BD80916E00816080936E0046
:100C70001092810080918100826080938100809138
:100C800081008160809381008091800081608093E9
:100C900080008091B10084608093B1008091B000A9
:100CA00081608093B00080917A00846080937A00A4
:100CB00080917A00826080937A0080917A008160CE
:100CC00080937A0080917A00806880937A001092F5
:100CD000C1000E94A7014B015C018CEDC82E85E08C
:100CE000D82EE12CF12C0E94A701DC01CB01881940
:100CF0009909AA09BB09883E9340A105B10558F09E
:100D000021E0C21AD108E108F10888EE880E83E0DC
:100D1000981EA11CB11CC114D104E104F10419F7FF
:100D200081E090E00E949203E091D301F091D40120
:100D300082E08083E091CF01F091D0011082E091B8
:100D4000D101F091D2018FEC80831092DB01E09110
:100D5000D701F091D80186E08083E091D501F09130
:100D6000D601808180618083E091D501F091D60128
:100D7000808188608083E091D501F091D6018081E7
:100D800080688083E091D501F091D60180818F7DCC
:100D9000808383EC91E00E942802892B59F183EC37
:100DA00091E00E94060290E0FC01E256F109E83170
:100DB000F10500F5E35CFF4F0C94FD0682E090E046
:100DC00017C083E090E014C084E090E011C085E09B
:100DD00090E00EC086E090E00BC087E090E008C095
:100DE00088E090E005C089E090E002C081E090E0FA
:100DF0000E9492030E94C802CCCFEE0FFF1F059005
:100E0000F491E02D099481E090E0F8940C940807A7
:040E1000F894FFCF84
:100E1400000000005F02CC01F701A60228020602CE
:100E24001A020000000062034E0374032203460307
:0C0E34003203230348656C6C6F21000042
:107E0000112484B714BE81FFF0D085E080938100F7
:107E100082E08093C00088E18093C10086E0809377
:107E2000C20080E18093C4008EE0C9D0259A86E02C
:107E300020E33CEF91E0309385002093840096BBD3
:107E4000B09BFECF1D9AA8958150A9F7CC24DD24C4
:107E500088248394B5E0AB2EA1E19A2EF3E0BF2EE7
:107E6000A2D0813461F49FD0082FAFD0023811F036
:107E7000013811F484E001C083E08DD089C08234E0
:107E800011F484E103C0853419F485E0A6D080C0E4
:107E9000853579F488D0E82EFF2485D0082F10E0AE
:107EA000102F00270E291F29000F111F8ED06801E7
:107EB0006FC0863521F484E090D080E0DECF843638
:107EC00009F040C070D06FD0082F6DD080E0C81688
:107ED00080E7D80618F4F601B7BEE895C0E0D1E017
:107EE00062D089930C17E1F7F0E0CF16F0E7DF06D8
:107EF00018F0F601B7BEE89568D007B600FCFDCFD4
:107F0000A601A0E0B1E02C9130E011968C91119780
:107F100090E0982F8827822B932B1296FA010C0160
:107F200087BEE89511244E5F5F4FF1E0A038BF0790
:107F300051F7F601A7BEE89507B600FCFDCF97BE46
:107F4000E89526C08437B1F42ED02DD0F82E2BD052
:107F50003CD0F601EF2C8F010F5F1F4F84911BD097
:107F6000EA94F801C1F70894C11CD11CFA94CF0C13
:107F7000D11C0EC0853739F428D08EE10CD085E9AC
:107F80000AD08FE07ACF813511F488E018D01DD067
:107F900080E101D065CF982F8091C00085FFFCCF94
:107FA0009093C60008958091C00087FFFCCF809118
:107FB000C00084FD01C0A8958091C6000895E0E648
:107FC000F0E098E1908380830895EDDF803219F02E
:107FD00088E0F5DFFFCF84E1DECF1F93182FE3DFCA
:107FE0001150E9F7F2DF1F91089580E0E8DFEE27F6
:047FF000FF270994CA
:027FFE00040479
:0400000300007E007B
:00000001FF
