:100000000C945D000C9485000C9485000C94850084
:100010000C9485000C9485000C9485000C9485004C
:100020000C9485000C9485000C9485000C9485003C
:100030000C9485000C9485000C9485000C9485002C
:100040000C9402030C9485000C9472030C944C03E2
:100050000C9485000C9485000C9485000C9485000C
:100060000C94A4030C948500000000080002010019
:100070000003040700000000000000000000000072
:10008000250028002B0000000000240027002A0083
:10009000040404040404040402020202020203032E
:1000A0000303030301020408102040800102040836
:1000B0001020010204081020D20411241FBECFEF2B
:1000C000D8E0DEBFCDBF11E0A0E0B1E0EEEAFBE09A
:1000D00002C005900D92A432B107D9F722E0A4E244
:1000E000B1E001C01D92A634B207E1F710E0CDE502
:1000F000D0E004C02197FE010E94CA05CC35D1078B
:10010000C9F70E940B050C94D5050C94000090E0F3
:10011000FC01EC55FF4F2491FC01E057FF4F849107
:10012000882399F090E0880F991FFC01EA57FF4F50
:10013000A591B491FC01E458FF4F859194918FB73C
:10014000F894EC91E22BEC938FBF089590E0FC01C2
:10015000E859FF4F3491FC01EC55FF4F2491FC010D
:10016000E057FF4FE491EE2309F43BC0332339F10C
:10017000333091F038F43130A9F0323001F584B5E4
:100180008F7D12C0373091F03830A1F03430B9F49F
:10019000809180008F7D03C0809180008F77809355
:1001A00080000DC084B58F7784BD09C08091B000F8
:1001B0008F7703C08091B0008F7D8093B000F0E016
:1001C000EE0FFF1FE458FF4FA591B4918FB7F8943D
:1001D000EC91611103C020952E2301C02E2B2C938E
:1001E0008FBF08951F93CF93DF93182FEB010E94C9
:1001F0008700209711F460E004C0CF3FD10539F4A7
:1002000061E0812FDF91CF911F910C94A600E12F27
:10021000F0E0E859FF4FE491E330F9F048F4E130C1
:10022000B9F0E230A1F584B5806284BDC8BD34C0A8
:10023000E730E9F0E83019F1E43049F580918000C9
:10024000806280938000D0938B00C0938A0024C08A
:1002500084B5806884BDC7BD1FC080918000806860
:1002600080938000D0938900C093880015C080914E
:10027000B00080688093B000C093B3000DC080913F
:10028000B00080628093B000C093B40005C0C03855
:10029000D1050CF0B5CFAFCFDF91CF911F9108956D
:1002A0001F93CF93DF931F92CDB7DEB7162F682F22
:1002B00070E085E049830E94F200612F70E089E0E0
:1002C0000E94F2004981642F70E086E00F90DF9178
:1002D000CF911F910C94F2003FB7F8948091980150
:1002E00090919901A0919A01B0919B0126B5A89B8C
:1002F00005C02F3F19F00196A11DB11D3FBFBA2FB8
:10030000A92F982F8827820F911DA11DB11DBC0117
:10031000CD0142E0660F771F881F991F4A95D1F7DC
:100320000895CF92DF92EF92FF920F931F93CF9396
:10033000DF936C017A018B01C0E0D0E0CE15DF05C0
:1003400089F0D8016D918D01D601ED91FC9101905C
:10035000F081E02DC6010995892B11F47E0102C0C0
:100360002196ECCFC701DF91CF911F910F91FF90A4
:10037000EF90DF90CF900895FC01538D448D252F91
:1003800030E0842F90E0821B930B541710F0CF962F
:10039000089501970895FC01918D828D981761F061
:1003A000828DDF01A80FB11D5D968C91928D9F5FAC
:1003B0009F73928F90E008958FEF9FEF0895FC0157
:1003C000918D828D981731F0828DE80FF11D858D0A
:1003D00090E008958FEF9FEF0895FC01918D228D9D
:1003E000892F90E0805C9F4F821B91098F73992722
:1003F00008958DE991E00E94ED0121E0892B09F437
:1004000020E0822F0895FC01848DDF01A80FB11D2B
:10041000A35ABF4F2C91848D90E001968F7399273A
:10042000848FA689B7892C93A089B1898C91806427
:100430008C93938D848D981306C00288F389E02DE8
:1004400080818F7D80830895EF92FF920F931F9399
:10045000CF93DF93EC0181E0888F9B8D8C8D981377
:1004600005C0E889F989808185FD24C0F62E0B8DB1
:1004700010E00F5F1F4F0F731127E02E8C8DE812D5
:100480000CC00FB607FCFACFE889F989808185FF97
:10049000F5CFCE010E940302F1CF8B8DFE01E80F54
:1004A000F11DE35AFF4FF0820B8FEA89FB898081AF
:1004B000806207C0EE89FF896083E889F9898081BD
:1004C0008064808381E090E0DF91CF911F910F9154
:1004D000FF90EF900895CF93DF93EC01888D8823F0
:1004E000C9F0EA89FB89808185FD05C0A889B989A1
:1004F0008C9186FD0FC00FB607FCF5CF808185FF7C
:10050000F2CFA889B9898C9185FFEDCFCE010E94E9
:100510000302E7CFDF91CF91089580E090E0892B2F
:1005200029F00E94F90181110C940000089585EDD5
:100530008093BC008091BC0084FDFCCF10926D01C3
:10054000089540914701262F30E0240F311D2132BC
:100550003105DCF420916D012430C9F4FC0180E008
:1005600090E0861758F4309147012191DC01AB5D92
:10057000BE4FA30FB11D2C930196F3CF809147017D
:10058000680F6093470180E0089581E0089582E05C
:10059000089508958FEF9FEF08958FEF9FEF0895CF
:1005A0008091240190E09195819591090895CF93D0
:1005B000DF9300D0CDB7DEB7CB01642F49835A83D8
:1005C0000E94A1024981842F5A81952F0F900F908C
:1005D000DF91CF910895CF93DF931F92CDB7DEB710
:1005E000698361E0CE0101960E94A10281E090E062
:1005F0000F90DF91CF910895089580E090E00895E5
:100600000E94D0051F920F920FB60F9211242F93C4
:100610003F938F939F93AF93BF9380919401909159
:100620009501A0919601B09197013091930123E03B
:10063000230F2D3720F40196A11DB11D05C026E81A
:10064000230F0296A11DB11D209393018093940165
:1006500090939501A0939601B09397018091980192
:1006600090919901A0919A01B0919B010196A11DD1
:10067000B11D8093980190939901A0939A01B09332
:100680009B01BF91AF919F918F913F912F910F90BF
:100690000FBE0F901F9018951F920F920FB60F92DA
:1006A00011242F933F934F935F936F937F938F9377
:1006B0009F93AF93BF93EF93FF938DE991E00E94D7
:1006C0000302FF91EF91BF91AF919F918F917F9125
:1006D0006F915F914F913F912F910F900FBE0F90AF
:1006E0001F9018951F920F920FB60F9211242F93FF
:1006F0008F939F93EF93FF93E091AD01F091AE0143
:100700008081E091B301F091B40182FD12C090812B
:100710008091B6018F5F8F732091B701821751F0DE
:10072000E091B601F0E0E356FE4F958F8093B6015D
:1007300001C08081FF91EF919F918F912F910F9038
:100740000FBE0F901F9018951F920F920FB60F9229
:1007500011242F933F934F935F936F937F938F93C6
:100760009F93AF93BF93EF93FF938091B900887FDE
:10077000803609F49CC068F5883209F45BC090F4B7
:10078000803109F454C038F4882309F4F6C0883065
:1007900009F44DC0F6C0883109F44CC0803209F428
:1007A0005DC0EFC0803409F468C048F4803309F4B8
:1007B00055C0883309F0E5C080936C01D8C08035FE
:1007C00009F44FC0883509F45DC0883409F0D9C0F8
:1007D000D6C0883909F4C7C0A8F4883709F467C0BF
:1007E00038F4883609F463C0803709F460C0C9C0A2
:1007F000883809F4B8C0803909F45FC0803809F03E
:10080000C0C05BC0803B09F486C038F4803A09F46C
:1008100066C0883A09F47FC0B4C0803C09F4A7C020
:10082000883C09F4A4C0883B09F48AC0AAC080911E
:10083000920110C09091910180919001981770F5EC
:10084000E091910181E08E0F80939101F0E0E059F9
:10085000FE4F80818093BB0085EC86C080936C0145
:100860008EC0E091910181E08E0F80939101809183
:10087000BB00F0E0E059FE4F8083909191018091A0
:1008800090016EC0E091910181E08E0F8093910103
:100890008091BB00F0E0E059FE4F808380916F01B2
:1008A00081116DC081E080936E0184EA61C083E0B4
:1008B00080936D0110926B01CFCF80916B018032DC
:1008C00008F051C0E0916B0181E08E0F80936B01C5
:1008D0008091BB00F0E0E55BFE4F8083BDCF85ECEF
:1008E0008093BC0010926D0180916B01803230F4D6
:1008F000E0916B01F0E0E55BFE4F108260916B01CF
:1009000070E0E0914901F0914A018BE491E0099592
:1009100010926B0136C084E080936D011092480103
:1009200010924701E0914501F091460109958091AF
:100930004701811105C081E0809347011092250194
:10094000E091480181E08E0F80934801F0E0EB5D7B
:10095000FE4F80818093BB009091480180914701B8
:10096000981708F479CF85E88093BC000AC085EC1D
:100970008093BC0010926D0104C010926C010E9423
:100980009702FF91EF91BF91AF919F918F917F91CE
:100990006F915F914F913F912F910F900FBE0F90EC
:1009A0001F901895EDE9F1E01382128288EE93E032
:1009B000A0E0B0E084839583A683B78324E031E090
:1009C0003183208325EC30E03587248724EC30E028
:1009D0003787268720EC30E0318B208B21EC30E00C
:1009E000338B228B22EC30E0358B248B26EC30E0ED
:1009F000378B268B118E128E138E148EEAE3F2E063
:100A00001382128284839583A683B78386E191E063
:100A1000918380830895789484B5826084BD84B581
:100A2000816084BD85B5826085BD85B5816085BDE9
:100A300080916E00816080936E00109281008091A1
:100A40008100826080938100809181008160809329
:100A50008100809180008160809380008091B1004E
:100A600084608093B1008091B00081608093B00079
:100A700080917A00846080937A0080917A0082600D
:100A800080937A0080917A00816080937A008091CF
:100A90007A00806880937A001092C10085E00E94FD
:100AA000870089E00E94870086E00E94870088E036
:100AB0000E94870060E088E00E94A60010929C01DE
:100AC0000E946C014B015C0186E9C82ED12CE12CFF
:100AD000F12C0E946C01DC01CB0188199909AA094B
:100AE000BB09883E9340A105B10558F021E0C21A28
:100AF000D108E108F10888EE880E83E0981EA11C59
:100B0000B11CC114D104E104F10419F7E091AD0165
:100B1000F091AE0182E08083E091A901F091AA01F9
:100B20001082E091AB01F091AC018FEC80831092C8
:100B3000B501E091B101F091B20186E08083E091CE
:100B4000AF01F091B001808180618083E091AF01BD
:100B5000F091B001808188608083E091AF01F091D5
:100B6000B001808180688083E091AF01F091B00195
:100B700080818F7D808361E088E00E94A60081E013
:100B800080939C0140E06FEF80E00E9450010E9442
:100B90008D02FDCFEE0FFF1F0590F491E02D09941B
:0E0BA00081E090E0F8940C94D505F894FFCF16
:100BAE000000000024029101BC016B02ED01CB019B
:100BBE00DF0100000000EB02D702FD02C902D002E5
:040BCE00CD02CA0288
:107E0000112484B714BE81FFF0D085E080938100F7
:107E100082E08093C00088E18093C10086E0809377
:107E2000C20080E18093C4008EE0C9D0259A86E02C
:107E300020E33CEF91E0309385002093840096BBD3
:107E4000B09BFECF1D9AA8958150A9F7CC24DD24C4
:107E500088248394B5E0AB2EA1E19A2EF3E0BF2EE7
:107E6000A2D0813461F49FD0082FAFD0023811F036
:107E7000013811F484E001C083E08DD089C08234E0
:107E800011F484E103C0853419F485E0A6D080C0E4
:107E9000853579F488D0E82EFF2485D0082F10E0AE
:107EA000102F00270E291F29000F111F8ED06801E7
:107EB0006FC0863521F484E090D080E0DECF843638
:107EC00009F040C070D06FD0082F6DD080E0C81688
:107ED00080E7D80618F4F601B7BEE895C0E0D1E017
:107EE00062D089930C17E1F7F0E0CF16F0E7DF06D8
:107EF00018F0F601B7BEE89568D007B600FCFDCFD4
:107F0000A601A0E0B1E02C9130E011968C91119780
:107F100090E0982F8827822B932B1296FA010C0160
:107F200087BEE89511244E5F5F4FF1E0A038BF0790
:107F300051F7F601A7BEE89507B600FCFDCF97BE46
:107F4000E89526C08437B1F42ED02DD0F82E2BD052
:107F50003CD0F601EF2C8F010F5F1F4F84911BD097
:107F6000EA94F801C1F70894C11CD11CFA94CF0C13
:107F7000D11C0EC0853739F428D08EE10CD085E9AC
:107F80000AD08FE07ACF813511F488E018D01DD067
:107F900080E101D065CF982F8091C00085FFFCCF94
:107FA0009093C60008958091C00087FFFCCF809118
:107FB000C00084FD01C0A8958091C6000895E0E648
:107FC000F0E098E1908380830895EDDF803219F02E
:107FD00088E0F5DFFFCF84E1DECF1F93182FE3DFCA
:107FE0001150E9F7F2DF1F91089580E0E8DFEE27F6
:047FF000FF270994CA
:027FFE00040479
:0400000300007E007B
:00000001FF
